{
  "_format": "hh-sol-artifact-1",
  "contractName": "DTender",
  "sourceName": "contracts/DTender.sol",
  "abi": [
    {
      "anonymous": false,
      "inputs": [
        {
          "indexed": false,
          "internalType": "uint256",
          "name": "tenderId",
          "type": "uint256"
        },
        {
          "indexed": false,
          "internalType": "uint256",
          "name": "bidId",
          "type": "uint256"
        }
      ],
      "name": "BidAccepted",
      "type": "event"
    },
    {
      "anonymous": false,
      "inputs": [
        {
          "indexed": false,
          "internalType": "uint256",
          "name": "tenderId",
          "type": "uint256"
        },
        {
          "indexed": false,
          "internalType": "uint256",
          "name": "bidId",
          "type": "uint256"
        },
        {
          "indexed": false,
          "internalType": "uint256",
          "name": "bidAmount",
          "type": "uint256"
        },
        {
          "indexed": false,
          "internalType": "uint256",
          "name": "createdAt",
          "type": "uint256"
        },
        {
          "indexed": false,
          "internalType": "address",
          "name": "bidOwner",
          "type": "address"
        }
      ],
      "name": "BidCreated",
      "type": "event"
    },
    {
      "anonymous": false,
      "inputs": [
        {
          "indexed": false,
          "internalType": "uint256",
          "name": "tenderId",
          "type": "uint256"
        },
        {
          "indexed": false,
          "internalType": "uint256",
          "name": "bidId",
          "type": "uint256"
        },
        {
          "indexed": false,
          "internalType": "uint256",
          "name": "bidAmount",
          "type": "uint256"
        },
        {
          "indexed": false,
          "internalType": "uint256",
          "name": "createdAt",
          "type": "uint256"
        }
      ],
      "name": "BidUpdated",
      "type": "event"
    },
    {
      "anonymous": false,
      "inputs": [
        {
          "indexed": true,
          "internalType": "address",
          "name": "previousOwner",
          "type": "address"
        },
        {
          "indexed": true,
          "internalType": "address",
          "name": "newOwner",
          "type": "address"
        }
      ],
      "name": "OwnershipTransferred",
      "type": "event"
    },
    {
      "anonymous": false,
      "inputs": [
        {
          "indexed": true,
          "internalType": "address",
          "name": "proofOwner",
          "type": "address"
        },
        {
          "indexed": true,
          "internalType": "uint256",
          "name": "proofId",
          "type": "uint256"
        }
      ],
      "name": "ProofSubmitted",
      "type": "event"
    },
    {
      "anonymous": false,
      "inputs": [
        {
          "indexed": false,
          "internalType": "uint256",
          "name": "tenderId",
          "type": "uint256"
        },
        {
          "indexed": false,
          "internalType": "string",
          "name": "name",
          "type": "string"
        },
        {
          "indexed": false,
          "internalType": "string",
          "name": "description",
          "type": "string"
        },
        {
          "indexed": false,
          "internalType": "uint256",
          "name": "deadline",
          "type": "uint256"
        },
        {
          "indexed": false,
          "internalType": "uint256",
          "name": "createdAt",
          "type": "uint256"
        },
        {
          "indexed": false,
          "internalType": "string",
          "name": "docIpfsHash",
          "type": "string"
        },
        {
          "indexed": false,
          "internalType": "uint256",
          "name": "minBid",
          "type": "uint256"
        },
        {
          "indexed": false,
          "internalType": "uint256",
          "name": "maxBid",
          "type": "uint256"
        },
        {
          "indexed": false,
          "internalType": "bool",
          "name": "isAccepted",
          "type": "bool"
        },
        {
          "indexed": false,
          "internalType": "address",
          "name": "owner",
          "type": "address"
        }
      ],
      "name": "TenderCreated",
      "type": "event"
    },
    {
      "inputs": [],
      "name": "TRANSFER_REQUEST_ID",
      "outputs": [
        {
          "internalType": "uint64",
          "name": "",
          "type": "uint64"
        }
      ],
      "stateMutability": "view",
      "type": "function"
    },
    {
      "inputs": [
        {
          "internalType": "uint256",
          "name": "_tenderId",
          "type": "uint256"
        },
        {
          "internalType": "uint256",
          "name": "_bidId",
          "type": "uint256"
        }
      ],
      "name": "acceptBid",
      "outputs": [],
      "stateMutability": "payable",
      "type": "function"
    },
    {
      "inputs": [
        {
          "internalType": "address",
          "name": "",
          "type": "address"
        }
      ],
      "name": "addressToId",
      "outputs": [
        {
          "internalType": "uint256",
          "name": "",
          "type": "uint256"
        }
      ],
      "stateMutability": "view",
      "type": "function"
    },
    {
      "inputs": [
        {
          "internalType": "uint256",
          "name": "",
          "type": "uint256"
        }
      ],
      "name": "bids",
      "outputs": [
        {
          "internalType": "uint256",
          "name": "bidAmount",
          "type": "uint256"
        },
        {
          "internalType": "uint256",
          "name": "bidId",
          "type": "uint256"
        },
        {
          "internalType": "uint256",
          "name": "tenderId",
          "type": "uint256"
        },
        {
          "internalType": "uint256",
          "name": "createdAt",
          "type": "uint256"
        },
        {
          "internalType": "address",
          "name": "bidOwner",
          "type": "address"
        }
      ],
      "stateMutability": "view",
      "type": "function"
    },
    {
      "inputs": [
        {
          "internalType": "uint256",
          "name": "_tenderId",
          "type": "uint256"
        },
        {
          "internalType": "uint256",
          "name": "_bidAmount",
          "type": "uint256"
        }
      ],
      "name": "createBid",
      "outputs": [],
      "stateMutability": "nonpayable",
      "type": "function"
    },
    {
      "inputs": [
        {
          "internalType": "string",
          "name": "_name",
          "type": "string"
        },
        {
          "internalType": "string",
          "name": "_description",
          "type": "string"
        },
        {
          "internalType": "uint256",
          "name": "_deadline",
          "type": "uint256"
        },
        {
          "internalType": "string",
          "name": "_docIpfsHash",
          "type": "string"
        },
        {
          "internalType": "uint256",
          "name": "_minBid",
          "type": "uint256"
        },
        {
          "internalType": "uint256",
          "name": "_maxBid",
          "type": "uint256"
        }
      ],
      "name": "createTender",
      "outputs": [],
      "stateMutability": "nonpayable",
      "type": "function"
    },
    {
      "inputs": [
        {
          "internalType": "uint256",
          "name": "_bidId",
          "type": "uint256"
        }
      ],
      "name": "getBid",
      "outputs": [
        {
          "components": [
            {
              "internalType": "uint256",
              "name": "bidAmount",
              "type": "uint256"
            },
            {
              "internalType": "uint256",
              "name": "bidId",
              "type": "uint256"
            },
            {
              "internalType": "uint256",
              "name": "tenderId",
              "type": "uint256"
            },
            {
              "internalType": "uint256",
              "name": "createdAt",
              "type": "uint256"
            },
            {
              "internalType": "address",
              "name": "bidOwner",
              "type": "address"
            }
          ],
          "internalType": "struct DTender.Bid",
          "name": "",
          "type": "tuple"
        }
      ],
      "stateMutability": "view",
      "type": "function"
    },
    {
      "inputs": [],
      "name": "getSupportedRequests",
      "outputs": [
        {
          "internalType": "uint64[]",
          "name": "arr",
          "type": "uint64[]"
        }
      ],
      "stateMutability": "view",
      "type": "function"
    },
    {
      "inputs": [
        {
          "internalType": "uint256",
          "name": "_tenderId",
          "type": "uint256"
        }
      ],
      "name": "getTender",
      "outputs": [
        {
          "components": [
            {
              "internalType": "string",
              "name": "name",
              "type": "string"
            },
            {
              "internalType": "string",
              "name": "description",
              "type": "string"
            },
            {
              "internalType": "uint256",
              "name": "deadline",
              "type": "uint256"
            },
            {
              "internalType": "uint256",
              "name": "createdAt",
              "type": "uint256"
            },
            {
              "internalType": "string",
              "name": "docIpfsHash",
              "type": "string"
            },
            {
              "internalType": "uint256",
              "name": "minBid",
              "type": "uint256"
            },
            {
              "internalType": "uint256",
              "name": "maxBid",
              "type": "uint256"
            },
            {
              "internalType": "uint256",
              "name": "tenderId",
              "type": "uint256"
            },
            {
              "internalType": "bool",
              "name": "isAccepted",
              "type": "bool"
            },
            {
              "internalType": "address",
              "name": "owner",
              "type": "address"
            }
          ],
          "internalType": "struct DTender.Tender",
          "name": "",
          "type": "tuple"
        }
      ],
      "stateMutability": "view",
      "type": "function"
    },
    {
      "inputs": [
        {
          "internalType": "uint256",
          "name": "_tenderId",
          "type": "uint256"
        }
      ],
      "name": "getTenderBids",
      "outputs": [
        {
          "components": [
            {
              "internalType": "uint256",
              "name": "bidAmount",
              "type": "uint256"
            },
            {
              "internalType": "uint256",
              "name": "bidId",
              "type": "uint256"
            },
            {
              "internalType": "uint256",
              "name": "tenderId",
              "type": "uint256"
            },
            {
              "internalType": "uint256",
              "name": "createdAt",
              "type": "uint256"
            },
            {
              "internalType": "address",
              "name": "bidOwner",
              "type": "address"
            }
          ],
          "internalType": "struct DTender.Bid[]",
          "name": "",
          "type": "tuple[]"
        }
      ],
      "stateMutability": "view",
      "type": "function"
    },
    {
      "inputs": [],
      "name": "getTenders",
      "outputs": [
        {
          "components": [
            {
              "internalType": "string",
              "name": "name",
              "type": "string"
            },
            {
              "internalType": "string",
              "name": "description",
              "type": "string"
            },
            {
              "internalType": "uint256",
              "name": "deadline",
              "type": "uint256"
            },
            {
              "internalType": "uint256",
              "name": "createdAt",
              "type": "uint256"
            },
            {
              "internalType": "string",
              "name": "docIpfsHash",
              "type": "string"
            },
            {
              "internalType": "uint256",
              "name": "minBid",
              "type": "uint256"
            },
            {
              "internalType": "uint256",
              "name": "maxBid",
              "type": "uint256"
            },
            {
              "internalType": "uint256",
              "name": "tenderId",
              "type": "uint256"
            },
            {
              "internalType": "bool",
              "name": "isAccepted",
              "type": "bool"
            },
            {
              "internalType": "address",
              "name": "owner",
              "type": "address"
            }
          ],
          "internalType": "struct DTender.Tender[]",
          "name": "",
          "type": "tuple[]"
        }
      ],
      "stateMutability": "view",
      "type": "function"
    },
    {
      "inputs": [
        {
          "internalType": "uint64",
          "name": "requestId",
          "type": "uint64"
        }
      ],
      "name": "getZKPRequest",
      "outputs": [
        {
          "components": [
            {
              "internalType": "uint256",
              "name": "schema",
              "type": "uint256"
            },
            {
              "internalType": "uint256",
              "name": "claimPathKey",
              "type": "uint256"
            },
            {
              "internalType": "uint256",
              "name": "operator",
              "type": "uint256"
            },
            {
              "internalType": "uint256[]",
              "name": "value",
              "type": "uint256[]"
            },
            {
              "internalType": "uint256",
              "name": "queryHash",
              "type": "uint256"
            },
            {
              "internalType": "string",
              "name": "circuitId",
              "type": "string"
            }
          ],
          "internalType": "struct ICircuitValidator.CircuitQuery",
          "name": "",
          "type": "tuple"
        }
      ],
      "stateMutability": "view",
      "type": "function"
    },
    {
      "inputs": [
        {
          "internalType": "uint256",
          "name": "",
          "type": "uint256"
        }
      ],
      "name": "idToAddress",
      "outputs": [
        {
          "internalType": "address",
          "name": "",
          "type": "address"
        }
      ],
      "stateMutability": "view",
      "type": "function"
    },
    {
      "inputs": [],
      "name": "owner",
      "outputs": [
        {
          "internalType": "address",
          "name": "",
          "type": "address"
        }
      ],
      "stateMutability": "view",
      "type": "function"
    },
    {
      "inputs": [
        {
          "internalType": "address",
          "name": "",
          "type": "address"
        },
        {
          "internalType": "uint64",
          "name": "",
          "type": "uint64"
        }
      ],
      "name": "proofs",
      "outputs": [
        {
          "internalType": "bool",
          "name": "",
          "type": "bool"
        }
      ],
      "stateMutability": "view",
      "type": "function"
    },
    {
      "inputs": [],
      "name": "renounceOwnership",
      "outputs": [],
      "stateMutability": "nonpayable",
      "type": "function"
    },
    {
      "inputs": [
        {
          "internalType": "uint64",
          "name": "",
          "type": "uint64"
        }
      ],
      "name": "requestQueries",
      "outputs": [
        {
          "internalType": "uint256",
          "name": "schema",
          "type": "uint256"
        },
        {
          "internalType": "uint256",
          "name": "claimPathKey",
          "type": "uint256"
        },
        {
          "internalType": "uint256",
          "name": "operator",
          "type": "uint256"
        },
        {
          "internalType": "uint256",
          "name": "queryHash",
          "type": "uint256"
        },
        {
          "internalType": "string",
          "name": "circuitId",
          "type": "string"
        }
      ],
      "stateMutability": "view",
      "type": "function"
    },
    {
      "inputs": [
        {
          "internalType": "uint64",
          "name": "",
          "type": "uint64"
        }
      ],
      "name": "requestValidators",
      "outputs": [
        {
          "internalType": "contract ICircuitValidator",
          "name": "",
          "type": "address"
        }
      ],
      "stateMutability": "view",
      "type": "function"
    },
    {
      "inputs": [
        {
          "internalType": "uint64",
          "name": "requestId",
          "type": "uint64"
        },
        {
          "internalType": "contract ICircuitValidator",
          "name": "validator",
          "type": "address"
        },
        {
          "internalType": "uint256",
          "name": "schema",
          "type": "uint256"
        },
        {
          "internalType": "uint256",
          "name": "claimPathKey",
          "type": "uint256"
        },
        {
          "internalType": "uint256",
          "name": "operator",
          "type": "uint256"
        },
        {
          "internalType": "uint256[]",
          "name": "value",
          "type": "uint256[]"
        }
      ],
      "name": "setZKPRequest",
      "outputs": [
        {
          "internalType": "bool",
          "name": "",
          "type": "bool"
        }
      ],
      "stateMutability": "nonpayable",
      "type": "function"
    },
    {
      "inputs": [
        {
          "internalType": "uint64",
          "name": "requestId",
          "type": "uint64"
        },
        {
          "internalType": "contract ICircuitValidator",
          "name": "validator",
          "type": "address"
        },
        {
          "internalType": "uint256",
          "name": "schema",
          "type": "uint256"
        },
        {
          "internalType": "uint256",
          "name": "claimPathKey",
          "type": "uint256"
        },
        {
          "internalType": "uint256",
          "name": "operator",
          "type": "uint256"
        },
        {
          "internalType": "uint256[]",
          "name": "value",
          "type": "uint256[]"
        },
        {
          "internalType": "uint256",
          "name": "queryHash",
          "type": "uint256"
        }
      ],
      "name": "setZKPRequestRaw",
      "outputs": [
        {
          "internalType": "bool",
          "name": "",
          "type": "bool"
        }
      ],
      "stateMutability": "nonpayable",
      "type": "function"
    },
    {
      "inputs": [
        {
          "internalType": "uint64",
          "name": "requestId",
          "type": "uint64"
        },
        {
          "internalType": "uint256[]",
          "name": "inputs",
          "type": "uint256[]"
        },
        {
          "internalType": "uint256[2]",
          "name": "a",
          "type": "uint256[2]"
        },
        {
          "internalType": "uint256[2][2]",
          "name": "b",
          "type": "uint256[2][2]"
        },
        {
          "internalType": "uint256[2]",
          "name": "c",
          "type": "uint256[2]"
        }
      ],
      "name": "submitZKPResponse",
      "outputs": [
        {
          "internalType": "bool",
          "name": "",
          "type": "bool"
        }
      ],
      "stateMutability": "nonpayable",
      "type": "function"
    },
    {
      "inputs": [
        {
          "internalType": "uint256",
          "name": "",
          "type": "uint256"
        },
        {
          "internalType": "uint256",
          "name": "",
          "type": "uint256"
        }
      ],
      "name": "tenderBids",
      "outputs": [
        {
          "internalType": "uint256",
          "name": "bidAmount",
          "type": "uint256"
        },
        {
          "internalType": "uint256",
          "name": "bidId",
          "type": "uint256"
        },
        {
          "internalType": "uint256",
          "name": "tenderId",
          "type": "uint256"
        },
        {
          "internalType": "uint256",
          "name": "createdAt",
          "type": "uint256"
        },
        {
          "internalType": "address",
          "name": "bidOwner",
          "type": "address"
        }
      ],
      "stateMutability": "view",
      "type": "function"
    },
    {
      "inputs": [
        {
          "internalType": "uint256",
          "name": "",
          "type": "uint256"
        }
      ],
      "name": "tenderIds",
      "outputs": [
        {
          "internalType": "uint256",
          "name": "",
          "type": "uint256"
        }
      ],
      "stateMutability": "view",
      "type": "function"
    },
    {
      "inputs": [
        {
          "internalType": "uint256",
          "name": "",
          "type": "uint256"
        }
      ],
      "name": "tenders",
      "outputs": [
        {
          "internalType": "string",
          "name": "name",
          "type": "string"
        },
        {
          "internalType": "string",
          "name": "description",
          "type": "string"
        },
        {
          "internalType": "uint256",
          "name": "deadline",
          "type": "uint256"
        },
        {
          "internalType": "uint256",
          "name": "createdAt",
          "type": "uint256"
        },
        {
          "internalType": "string",
          "name": "docIpfsHash",
          "type": "string"
        },
        {
          "internalType": "uint256",
          "name": "minBid",
          "type": "uint256"
        },
        {
          "internalType": "uint256",
          "name": "maxBid",
          "type": "uint256"
        },
        {
          "internalType": "uint256",
          "name": "tenderId",
          "type": "uint256"
        },
        {
          "internalType": "bool",
          "name": "isAccepted",
          "type": "bool"
        },
        {
          "internalType": "address",
          "name": "owner",
          "type": "address"
        }
      ],
      "stateMutability": "view",
      "type": "function"
    },
    {
      "inputs": [
        {
          "internalType": "address",
          "name": "newOwner",
          "type": "address"
        }
      ],
      "name": "transferOwnership",
      "outputs": [],
      "stateMutability": "nonpayable",
      "type": "function"
    },
    {
      "inputs": [
        {
          "internalType": "uint256",
          "name": "_bidId",
          "type": "uint256"
        },
        {
          "internalType": "uint256",
          "name": "_bidAmount",
          "type": "uint256"
        }
      ],
      "name": "updateBid",
      "outputs": [],
      "stateMutability": "nonpayable",
      "type": "function"
    }
  ],
  "bytecode": "0x60806040523480156200001157600080fd5b5062000032620000266200003860201b60201c565b6200004060201b60201c565b62000104565b600033905090565b60008060009054906101000a900473ffffffffffffffffffffffffffffffffffffffff169050816000806101000a81548173ffffffffffffffffffffffffffffffffffffffff021916908373ffffffffffffffffffffffffffffffffffffffff1602179055508173ffffffffffffffffffffffffffffffffffffffff168173ffffffffffffffffffffffffffffffffffffffff167f8be0079c531659141344cd1fd0a4f28419497f9722a3daafe3b4186f6b6457e060405160405180910390a35050565b61540980620001146000396000f3fe6080604052600436106101815760003560e01c806396bf4741116100d1578063b7751c711161008a578063cb0e0d7d11610064578063cb0e0d7d14610622578063f2fde38b1461065f578063f765628714610688578063f8cecc42146106c557610181565b8063b7751c711461057b578063c23c252a146105a4578063c76d0845146105e557610181565b806396bf4741146104095780639abdc6451461044a5780639e621bcf14610487578063a8723114146104c4578063b45c0fdf14610501578063b68967e21461053e57610181565b80633c889e6f1161013e57806360365e0c1161011857806360365e0c1461037357806363ec508f1461039c578063715018a6146103c75780638da5cb5b146103de57610181565b80633c889e6f146102af5780634423c5f1146102ec578063465e1def1461032d57610181565b806302e9d5e4146101865780630585c25e146101a257806312d0ec80146101df5780632a2d0c471461020a57806337ba95231461024757806339c776b614610272575b600080fd5b6101a0600480360381019061019b9190613480565b6106ee565b005b3480156101ae57600080fd5b506101c960048036038101906101c491906134c0565b610bf8565b6040516101d691906136d9565b60405180910390f35b3480156101eb57600080fd5b506101f4610e7f565b60405161020191906138a5565b60405180910390f35b34801561021657600080fd5b50610231600480360381019061022c91906134c0565b6111bd565b60405161023e91906138d6565b60405180910390f35b34801561025357600080fd5b5061025c6111f0565b60405161026991906139c3565b60405180910390f35b34801561027e57600080fd5b50610299600480360381019061029491906134c0565b61127c565b6040516102a691906139f4565b60405180910390f35b3480156102bb57600080fd5b506102d660048036038101906102d191906134c0565b6112a0565b6040516102e39190613a77565b60405180910390f35b3480156102f857600080fd5b50610313600480360381019061030e91906134c0565b61134b565b604051610324959493929190613a92565b60405180910390f35b34801561033957600080fd5b50610354600480360381019061034f91906134c0565b6113a1565b60405161036a9a99989796959493929190613b3e565b60405180910390f35b34801561037f57600080fd5b5061039a60048036038101906103959190613480565b6115ba565b005b3480156103a857600080fd5b506103b1611916565b6040516103be9190613bfe565b60405180910390f35b3480156103d357600080fd5b506103dc61191b565b005b3480156103ea57600080fd5b506103f361192f565b60405161040091906138d6565b60405180910390f35b34801561041557600080fd5b50610430600480360381019061042b9190613c45565b611958565b604051610441959493929190613c72565b60405180910390f35b34801561045657600080fd5b50610471600480360381019061046c9190613d6f565b611a16565b60405161047e9190613e1e565b60405180910390f35b34801561049357600080fd5b506104ae60048036038101906104a99190613e39565b611b85565b6040516104bb9190613e1e565b60405180910390f35b3480156104d057600080fd5b506104eb60048036038101906104e69190613c45565b611e8f565b6040516104f89190613f5a565b60405180910390f35b34801561050d57600080fd5b5061052860048036038101906105239190613fa1565b611ec2565b6040516105359190613e1e565b60405180910390f35b34801561054a57600080fd5b5061056560048036038101906105609190614025565b611ef1565b6040516105729190613e1e565b60405180910390f35b34801561058757600080fd5b506105a2600480360381019061059d9190613480565b61230a565b005b3480156105b057600080fd5b506105cb60048036038101906105c69190613480565b61260a565b6040516105dc959493929190613a92565b60405180910390f35b3480156105f157600080fd5b5061060c60048036038101906106079190613c45565b61267d565b6040516106199190614200565b60405180910390f35b34801561062e57600080fd5b5061064960048036038101906106449190614222565b6127d0565b60405161065691906139f4565b60405180910390f35b34801561066b57600080fd5b5061068660048036038101906106819190614222565b6127e8565b005b34801561069457600080fd5b506106af60048036038101906106aa91906134c0565b61286c565b6040516106bc9190614366565b60405180910390f35b3480156106d157600080fd5b506106ec60048036038101906106e791906144b8565b61295c565b005b8160006006600083815260200190815260200160002060405180610140016040529081600082018054610720906145c8565b80601f016020809104026020016040519081016040528092919081815260200182805461074c906145c8565b80156107995780601f1061076e57610100808354040283529160200191610799565b820191906000526020600020905b81548152906001019060200180831161077c57829003601f168201915b505050505081526020016001820180546107b2906145c8565b80601f01602080910402602001604051908101604052809291908181526020018280546107de906145c8565b801561082b5780601f106108005761010080835404028352916020019161082b565b820191906000526020600020905b81548152906001019060200180831161080e57829003601f168201915b505050505081526020016002820154815260200160038201548152602001600482018054610858906145c8565b80601f0160208091040260200160405190810160405280929190818152602001828054610884906145c8565b80156108d15780601f106108a6576101008083540402835291602001916108d1565b820191906000526020600020905b8154815290600101906020018083116108b457829003601f168201915b505050505081526020016005820154815260200160068201548152602001600782015481526020016008820160009054906101000a900460ff161515151581526020016008820160019054906101000a900473ffffffffffffffffffffffffffffffffffffffff1673ffffffffffffffffffffffffffffffffffffffff1673ffffffffffffffffffffffffffffffffffffffff1681525050905080610120015173ffffffffffffffffffffffffffffffffffffffff163373ffffffffffffffffffffffffffffffffffffffff16146109de576040517f08c379a00000000000000000000000000000000000000000000000000000000081526004016109d59061466c565b60405180910390fd5b60076000848152602001908152602001600020600001543414610a36576040517f08c379a0000000000000000000000000000000000000000000000000000000008152600401610a2d906146fe565b60405180910390fd5b6006600085815260200190815260200160002060080160009054906101000a900460ff1615610a9a576040517f08c379a0000000000000000000000000000000000000000000000000000000008152600401610a919061476a565b60405180910390fd5b6000600760008581526020019081526020016000206040518060a0016040529081600082015481526020016001820154815260200160028201548152602001600382015481526020016004820160009054906101000a900473ffffffffffffffffffffffffffffffffffffffff1673ffffffffffffffffffffffffffffffffffffffff1673ffffffffffffffffffffffffffffffffffffffff16815250509050806080015173ffffffffffffffffffffffffffffffffffffffff166108fc82600001519081150290604051600060405180830381858888f19350505050158015610b88573d6000803e3d6000fd5b5060016006600087815260200190815260200160002060080160006101000a81548160ff0219169083151502179055507feeb046b305fcff3538cfdefcb3ce223663ef84836df9830a1de00bc00817631e8585604051610be992919061478a565b60405180910390a15050505050565b610c00613260565b6006600083815260200190815260200160002060405180610140016040529081600082018054610c2f906145c8565b80601f0160208091040260200160405190810160405280929190818152602001828054610c5b906145c8565b8015610ca85780601f10610c7d57610100808354040283529160200191610ca8565b820191906000526020600020905b815481529060010190602001808311610c8b57829003601f168201915b50505050508152602001600182018054610cc1906145c8565b80601f0160208091040260200160405190810160405280929190818152602001828054610ced906145c8565b8015610d3a5780601f10610d0f57610100808354040283529160200191610d3a565b820191906000526020600020905b815481529060010190602001808311610d1d57829003601f168201915b505050505081526020016002820154815260200160038201548152602001600482018054610d67906145c8565b80601f0160208091040260200160405190810160405280929190818152602001828054610d93906145c8565b8015610de05780601f10610db557610100808354040283529160200191610de0565b820191906000526020600020905b815481529060010190602001808311610dc357829003601f168201915b505050505081526020016005820154815260200160068201548152602001600782015481526020016008820160009054906101000a900460ff161515151581526020016008820160019054906101000a900473ffffffffffffffffffffffffffffffffffffffff1673ffffffffffffffffffffffffffffffffffffffff1673ffffffffffffffffffffffffffffffffffffffff16815250509050919050565b6060600060088054905067ffffffffffffffff811115610ea257610ea161438d565b5b604051908082528060200260200182016040528015610edb57816020015b610ec8613260565b815260200190600190039081610ec05790505b50905060005b6008805490508110156111b5576006600060088381548110610f0657610f056147b3565b5b9060005260206000200154815260200190815260200160002060405180610140016040529081600082018054610f3b906145c8565b80601f0160208091040260200160405190810160405280929190818152602001828054610f67906145c8565b8015610fb45780601f10610f8957610100808354040283529160200191610fb4565b820191906000526020600020905b815481529060010190602001808311610f9757829003601f168201915b50505050508152602001600182018054610fcd906145c8565b80601f0160208091040260200160405190810160405280929190818152602001828054610ff9906145c8565b80156110465780601f1061101b57610100808354040283529160200191611046565b820191906000526020600020905b81548152906001019060200180831161102957829003601f168201915b505050505081526020016002820154815260200160038201548152602001600482018054611073906145c8565b80601f016020809104026020016040519081016040528092919081815260200182805461109f906145c8565b80156110ec5780601f106110c1576101008083540402835291602001916110ec565b820191906000526020600020905b8154815290600101906020018083116110cf57829003601f168201915b505050505081526020016005820154815260200160068201548152602001600782015481526020016008820160009054906101000a900460ff161515151581526020016008820160019054906101000a900473ffffffffffffffffffffffffffffffffffffffff1673ffffffffffffffffffffffffffffffffffffffff1673ffffffffffffffffffffffffffffffffffffffff1681525050828281518110611197576111966147b3565b5b602002602001018190525080806111ad90614811565b915050610ee1565b508091505090565b60096020528060005260406000206000915054906101000a900473ffffffffffffffffffffffffffffffffffffffff1681565b6060600480548060200260200160405190810160405280929190818152602001828054801561127257602002820191906000526020600020906000905b82829054906101000a900467ffffffffffffffff1667ffffffffffffffff168152602001906008019060208260070104928301926001038202915080841161122d5790505b5050505050905090565b6008818154811061128c57600080fd5b906000526020600020016000915090505481565b6112a86132cb565b600760008381526020019081526020016000206040518060a0016040529081600082015481526020016001820154815260200160028201548152602001600382015481526020016004820160009054906101000a900473ffffffffffffffffffffffffffffffffffffffff1673ffffffffffffffffffffffffffffffffffffffff1673ffffffffffffffffffffffffffffffffffffffff16815250509050919050565b60076020528060005260406000206000915090508060000154908060010154908060020154908060030154908060040160009054906101000a900473ffffffffffffffffffffffffffffffffffffffff16905085565b60066020528060005260406000206000915090508060000180546113c4906145c8565b80601f01602080910402602001604051908101604052809291908181526020018280546113f0906145c8565b801561143d5780601f106114125761010080835404028352916020019161143d565b820191906000526020600020905b81548152906001019060200180831161142057829003601f168201915b505050505090806001018054611452906145c8565b80601f016020809104026020016040519081016040528092919081815260200182805461147e906145c8565b80156114cb5780601f106114a0576101008083540402835291602001916114cb565b820191906000526020600020905b8154815290600101906020018083116114ae57829003601f168201915b5050505050908060020154908060030154908060040180546114ec906145c8565b80601f0160208091040260200160405190810160405280929190818152602001828054611518906145c8565b80156115655780601f1061153a57610100808354040283529160200191611565565b820191906000526020600020905b81548152906001019060200180831161154857829003601f168201915b5050505050908060050154908060060154908060070154908060080160009054906101000a900460ff16908060080160019054906101000a900473ffffffffffffffffffffffffffffffffffffffff1690508a565b816007600082815260200190815260200160002060040160009054906101000a900473ffffffffffffffffffffffffffffffffffffffff1673ffffffffffffffffffffffffffffffffffffffff163373ffffffffffffffffffffffffffffffffffffffff161461165f576040517f08c379a0000000000000000000000000000000000000000000000000000000008152600401611656906148cc565b60405180910390fd5b6007600084815260200190815260200160002060020154600660008281526020019081526020016000206002015442106116ce576040517f08c379a00000000000000000000000000000000000000000000000000000000081526004016116c590614938565b60405180910390fd5b600760008581526020019081526020016000206002015483600660008381526020019081526020016000206005015481101561173f576040517f08c379a0000000000000000000000000000000000000000000000000000000008152600401611736906149a4565b60405180910390fd5b6006600083815260200190815260200160002060060154811115611798576040517f08c379a000000000000000000000000000000000000000000000000000000000815260040161178f90614a10565b60405180910390fd5b6000600760008881526020019081526020016000206040518060a0016040529081600082015481526020016001820154815260200160028201548152602001600382015481526020016004820160009054906101000a900473ffffffffffffffffffffffffffffffffffffffff1673ffffffffffffffffffffffffffffffffffffffff1673ffffffffffffffffffffffffffffffffffffffff168152505090508581600001818152505080600760008981526020019081526020016000206000820151816000015560208201518160010155604082015181600201556060820151816003015560808201518160040160006101000a81548173ffffffffffffffffffffffffffffffffffffffff021916908373ffffffffffffffffffffffffffffffffffffffff1602179055509050507fc438c6b6b498e3d2be767b4440a59dd0cb04c2441081c0a93b6d0f8e0a0e1b5d8160400151888884606001516040516119059493929190614a30565b60405180910390a150505050505050565b600181565b611923612b7b565b61192d6000612bf9565b565b60008060009054906101000a900473ffffffffffffffffffffffffffffffffffffffff16905090565b6002602052806000526040600020600091509050806000015490806001015490806002015490806004015490806005018054611993906145c8565b80601f01602080910402602001604051908101604052809291908181526020018280546119bf906145c8565b8015611a0c5780601f106119e157610100808354040283529160200191611a0c565b820191906000526020600020905b8154815290600101906020018083116119ef57829003601f168201915b5050505050905085565b6000611a20612b7b565b600073__$933e38ee1bac859086d8d4e5388b6d5e5f$__6340ec6e4985856040518363ffffffff1660e01b8152600401611a5b929190614ae7565b60206040518083038186803b158015611a7357600080fd5b505af4158015611a87573d6000803e3d6000fd5b505050506040513d601f19601f82011682018060405250810190611aab9190614b20565b9050600073__$149ddb96bf5d692e763ea65f305faba249$__63f5b4a7886040518060c001604052808b8152602001600081526020018981526020018a815260200160008152602001858152506040518263ffffffff1660e01b8152600401611b149190614bf8565b60206040518083038186803b158015611b2c57600080fd5b505af4158015611b40573d6000803e3d6000fd5b505050506040513d601f19601f82011682018060405250810190611b649190614b20565b9050611b768a8a8a8a8a8a8a88611b85565b92505050979650505050505050565b6000611b8f612b7b565b600073ffffffffffffffffffffffffffffffffffffffff16600360008b67ffffffffffffffff1667ffffffffffffffff16815260200190815260200160002060009054906101000a900473ffffffffffffffffffffffffffffffffffffffff1673ffffffffffffffffffffffffffffffffffffffff161415611c625760048990806001815401808255809150506001900390600052602060002090600491828204019190066008029091909190916101000a81548167ffffffffffffffff021916908367ffffffffffffffff1602179055505b81600260008b67ffffffffffffffff1667ffffffffffffffff1681526020019081526020016000206004018190555084600260008b67ffffffffffffffff1667ffffffffffffffff168152602001908152602001600020600201819055508773ffffffffffffffffffffffffffffffffffffffff166359a2aeaa6040518163ffffffff1660e01b815260040160006040518083038186803b158015611d0657600080fd5b505afa158015611d1a573d6000803e3d6000fd5b505050506040513d6000823e3d601f19601f82011682018060405250810190611d439190614c83565b600260008b67ffffffffffffffff1667ffffffffffffffff1681526020019081526020016000206005019080519060200190611d80929190613310565b5085600260008b67ffffffffffffffff1667ffffffffffffffff1681526020019081526020016000206001018190555086600260008b67ffffffffffffffff1667ffffffffffffffff168152602001908152602001600020600001819055508383600260008c67ffffffffffffffff1667ffffffffffffffff1681526020019081526020016000206003019190611e18929190613396565b5087600360008b67ffffffffffffffff1667ffffffffffffffff16815260200190815260200160002060006101000a81548173ffffffffffffffffffffffffffffffffffffffff021916908373ffffffffffffffffffffffffffffffffffffffff1602179055506001905098975050505050505050565b60036020528060005260406000206000915054906101000a900473ffffffffffffffffffffffffffffffffffffffff1681565b60016020528160005260406000206020528060005260406000206000915091509054906101000a900460ff1681565b60008073ffffffffffffffffffffffffffffffffffffffff16600360008967ffffffffffffffff1667ffffffffffffffff16815260200190815260200160002060009054906101000a900473ffffffffffffffffffffffffffffffffffffffff1673ffffffffffffffffffffffffffffffffffffffff161415611fa9576040517f08c379a0000000000000000000000000000000000000000000000000000000008152600401611fa090614d3e565b60405180910390fd5b6000600260008967ffffffffffffffff1667ffffffffffffffff168152602001908152602001600020600401541415612017576040517f08c379a000000000000000000000000000000000000000000000000000000000815260040161200e90614dd0565b60405180910390fd5b6120aa87878780806020026020016040519081016040528093929190818152602001838360200280828437600081840152601f19601f82011690508083019250505050505050600360008b67ffffffffffffffff1667ffffffffffffffff16815260200190815260200160002060009054906101000a900473ffffffffffffffffffffffffffffffffffffffff16612cbd565b600360008867ffffffffffffffff1667ffffffffffffffff16815260200190815260200160002060009054906101000a900473ffffffffffffffffffffffffffffffffffffffff1673ffffffffffffffffffffffffffffffffffffffff1663434661ef8787878787600260008f67ffffffffffffffff1667ffffffffffffffff168152602001908152602001600020600401546040518763ffffffff1660e01b815260040161215e96959493929190614f2c565b60206040518083038186803b15801561217657600080fd5b505afa15801561218a573d6000803e3d6000fd5b505050506040513d601f19601f820116820180604052508101906121ae9190614fb6565b6121ed576040517f08c379a00000000000000000000000000000000000000000000000000000000081526004016121e49061502f565b60405180910390fd5b60018060003373ffffffffffffffffffffffffffffffffffffffff1673ffffffffffffffffffffffffffffffffffffffff16815260200190815260200160002060008967ffffffffffffffff1667ffffffffffffffff16815260200190815260200160002060006101000a81548160ff0219169083151502179055506122fc87878780806020026020016040519081016040528093929190818152602001838360200280828437600081840152601f19601f82011690508083019250505050505050600360008b67ffffffffffffffff1667ffffffffffffffff16815260200190815260200160002060009054906101000a900473ffffffffffffffffffffffffffffffffffffffff16612ddc565b600190509695505050505050565b8160066000828152602001908152602001600020600201544210612363576040517f08c379a000000000000000000000000000000000000000000000000000000000815260040161235a90614938565b60405180910390fd5b828260066000838152602001908152602001600020600501548110156123be576040517f08c379a00000000000000000000000000000000000000000000000000000000081526004016123b5906149a4565b60405180910390fd5b6006600083815260200190815260200160002060060154811115612417576040517f08c379a000000000000000000000000000000000000000000000000000000000815260040161240e90614a10565b60405180910390fd5b600042905060008682604051602001612431929190615070565b6040516020818303038152906040528051906020012060001c905060006040518060a001604052808881526020018381526020018981526020018481526020013373ffffffffffffffffffffffffffffffffffffffff168152509050600560008981526020019081526020016000208190806001815401808255809150506001900390600052602060002090600502016000909190919091506000820151816000015560208201518160010155604082015181600201556060820151816003015560808201518160040160006101000a81548173ffffffffffffffffffffffffffffffffffffffff021916908373ffffffffffffffffffffffffffffffffffffffff160217905550505080600760008481526020019081526020016000206000820151816000015560208201518160010155604082015181600201556060820151816003015560808201518160040160006101000a81548173ffffffffffffffffffffffffffffffffffffffff021916908373ffffffffffffffffffffffffffffffffffffffff1602179055509050507f250091be94a447db4407e488835fa47d140081d834b7079f59a0f9f4d0b29aad88838986336040516125f8959493929190613a92565b60405180910390a15050505050505050565b6005602052816000526040600020818154811061262657600080fd5b9060005260206000209060050201600091509150508060000154908060010154908060020154908060030154908060040160009054906101000a900473ffffffffffffffffffffffffffffffffffffffff16905085565b6126856133e3565b600260008367ffffffffffffffff1667ffffffffffffffff1681526020019081526020016000206040518060c00160405290816000820154815260200160018201548152602001600282015481526020016003820180548060200260200160405190810160405280929190818152602001828054801561272457602002820191906000526020600020905b815481526020019060010190808311612710575b5050505050815260200160048201548152602001600582018054612747906145c8565b80601f0160208091040260200160405190810160405280929190818152602001828054612773906145c8565b80156127c05780601f10612795576101008083540402835291602001916127c0565b820191906000526020600020905b8154815290600101906020018083116127a357829003601f168201915b5050505050815250509050919050565b600a6020528060005260406000206000915090505481565b6127f0612b7b565b600073ffffffffffffffffffffffffffffffffffffffff168173ffffffffffffffffffffffffffffffffffffffff161415612860576040517f08c379a00000000000000000000000000000000000000000000000000000000081526004016128579061510e565b60405180910390fd5b61286981612bf9565b50565b606060056000838152602001908152602001600020805480602002602001604051908101604052809291908181526020016000905b8282101561295157838290600052602060002090600502016040518060a0016040529081600082015481526020016001820154815260200160028201548152602001600382015481526020016004820160009054906101000a900473ffffffffffffffffffffffffffffffffffffffff1673ffffffffffffffffffffffffffffffffffffffff1673ffffffffffffffffffffffffffffffffffffffff1681525050815260200190600101906128a1565b505050509050919050565b60004290506000878260405160200161297692919061516a565b6040516020818303038152906040528051906020012060001c905060006040518061014001604052808a81526020018981526020018881526020018481526020018781526020018681526020018581526020018381526020016000151581526020013373ffffffffffffffffffffffffffffffffffffffff16815250905080600660008481526020019081526020016000206000820151816000019080519060200190612a24929190613310565b506020820151816001019080519060200190612a41929190613310565b5060408201518160020155606082015181600301556080820151816004019080519060200190612a72929190613310565b5060a0820151816005015560c0820151816006015560e082015181600701556101008201518160080160006101000a81548160ff0219169083151502179055506101208201518160080160016101000a81548173ffffffffffffffffffffffffffffffffffffffff021916908373ffffffffffffffffffffffffffffffffffffffff16021790555090505060088290806001815401808255809150506001900390600052602060002001600090919091909150557ff68a6104769a53d15f691197a95237d0bcf3b9c57c45a458b386ac7515d52e1d828a8a8a878b8b8b600033604051612b689a99989796959493929190615192565b60405180910390a1505050505050505050565b612b8361307f565b73ffffffffffffffffffffffffffffffffffffffff16612ba161192f565b73ffffffffffffffffffffffffffffffffffffffff1614612bf7576040517f08c379a0000000000000000000000000000000000000000000000000000000008152600401612bee9061528f565b60405180910390fd5b565b60008060009054906101000a900473ffffffffffffffffffffffffffffffffffffffff169050816000806101000a81548173ffffffffffffffffffffffffffffffffffffffff021916908373ffffffffffffffffffffffffffffffffffffffff1602179055508173ffffffffffffffffffffffffffffffffffffffff168173ffffffffffffffffffffffffffffffffffffffff167f8be0079c531659141344cd1fd0a4f28419497f9722a3daafe3b4186f6b6457e060405160405180910390a35050565b6000612d5f838373ffffffffffffffffffffffffffffffffffffffff16639f442afa6040518163ffffffff1660e01b815260040160206040518083038186803b158015612d0957600080fd5b505afa158015612d1d573d6000803e3d6000fd5b505050506040513d601f19601f82011682018060405250810190612d419190614b20565b81518110612d5257612d516147b3565b5b6020026020010151613087565b90508073ffffffffffffffffffffffffffffffffffffffff16612d8061307f565b73ffffffffffffffffffffffffffffffffffffffff1614612dd6576040517f08c379a0000000000000000000000000000000000000000000000000000000008152600401612dcd90615321565b60405180910390fd5b50505050565b600167ffffffffffffffff168367ffffffffffffffff16148015612e4657506000600a6000612e0961307f565b73ffffffffffffffffffffffffffffffffffffffff1673ffffffffffffffffffffffffffffffffffffffff16815260200190815260200160002054145b612e85576040517f08c379a0000000000000000000000000000000000000000000000000000000008152600401612e7c906153b3565b60405180910390fd5b6000828273ffffffffffffffffffffffffffffffffffffffff16639f442afa6040518163ffffffff1660e01b815260040160206040518083038186803b158015612ece57600080fd5b505afa158015612ee2573d6000803e3d6000fd5b505050506040513d601f19601f82011682018060405250810190612f069190614b20565b81518110612f1757612f166147b3565b5b60200260200101519050600073ffffffffffffffffffffffffffffffffffffffff166009600083815260200190815260200160002060009054906101000a900473ffffffffffffffffffffffffffffffffffffffff1673ffffffffffffffffffffffffffffffffffffffff16141561302e5780600a6000612f9661307f565b73ffffffffffffffffffffffffffffffffffffffff1673ffffffffffffffffffffffffffffffffffffffff16815260200190815260200160002081905550612fdc61307f565b6009600083815260200190815260200160002060006101000a81548173ffffffffffffffffffffffffffffffffffffffff021916908373ffffffffffffffffffffffffffffffffffffffff1602179055505b8061303761307f565b73ffffffffffffffffffffffffffffffffffffffff167f31dcad4840c3951058f13581a07253b4b2bf340b350e1d7ba282f33140a4835b60405160405180910390a350505050565b600033905090565b60006130a261309d613098846130a9565b6131f5565b613252565b9050919050565b600081905060087eff00ff00ff00ff00ff00ff00ff00ff00ff00ff00ff00ff00ff00ff00ff00ff8216901b60087fff00ff00ff00ff00ff00ff00ff00ff00ff00ff00ff00ff00ff00ff00ff00ff008316901c17905060107dffff0000ffff0000ffff0000ffff0000ffff0000ffff0000ffff0000ffff8216901b60107fffff0000ffff0000ffff0000ffff0000ffff0000ffff0000ffff0000ffff00008316901c17905060207bffffffff00000000ffffffff00000000ffffffff00000000ffffffff8216901b60207fffffffff00000000ffffffff00000000ffffffff00000000ffffffff000000008316901c179050604077ffffffffffffffff0000000000000000ffffffffffffffff8216901b60407fffffffffffffffff0000000000000000ffffffffffffffff00000000000000008316901c179050608081901b608082901c179050919050565b6060602067ffffffffffffffff8111156132125761321161438d565b5b6040519080825280601f01601f1916602001820160405280156132445781602001600182028036833780820191505090505b509050816020820152919050565b600060148201519050919050565b6040518061014001604052806060815260200160608152602001600081526020016000815260200160608152602001600081526020016000815260200160008152602001600015158152602001600073ffffffffffffffffffffffffffffffffffffffff1681525090565b6040518060a0016040528060008152602001600081526020016000815260200160008152602001600073ffffffffffffffffffffffffffffffffffffffff1681525090565b82805461331c906145c8565b90600052602060002090601f01602090048101928261333e5760008555613385565b82601f1061335757805160ff1916838001178555613385565b82800160010185558215613385579182015b82811115613384578251825591602001919060010190613369565b5b5090506133929190613419565b5090565b8280548282559060005260206000209081019282156133d2579160200282015b828111156133d15782358255916020019190600101906133b6565b5b5090506133df9190613419565b5090565b6040518060c001604052806000815260200160008152602001600081526020016060815260200160008152602001606081525090565b5b8082111561343257600081600090555060010161341a565b5090565b6000604051905090565b600080fd5b600080fd5b6000819050919050565b61345d8161344a565b811461346857600080fd5b50565b60008135905061347a81613454565b92915050565b6000806040838503121561349757613496613440565b5b60006134a58582860161346b565b92505060206134b68582860161346b565b9150509250929050565b6000602082840312156134d6576134d5613440565b5b60006134e48482850161346b565b91505092915050565b600081519050919050565b600082825260208201905092915050565b60005b8381101561352757808201518184015260208101905061350c565b83811115613536576000848401525b50505050565b6000601f19601f8301169050919050565b6000613558826134ed565b61356281856134f8565b9350613572818560208601613509565b61357b8161353c565b840191505092915050565b61358f8161344a565b82525050565b60008115159050919050565b6135aa81613595565b82525050565b600073ffffffffffffffffffffffffffffffffffffffff82169050919050565b60006135db826135b0565b9050919050565b6135eb816135d0565b82525050565b600061014083016000830151848203600086015261360f828261354d565b91505060208301518482036020860152613629828261354d565b915050604083015161363e6040860182613586565b5060608301516136516060860182613586565b5060808301518482036080860152613669828261354d565b91505060a083015161367e60a0860182613586565b5060c083015161369160c0860182613586565b5060e08301516136a460e0860182613586565b506101008301516136b96101008601826135a1565b506101208301516136ce6101208601826135e2565b508091505092915050565b600060208201905081810360008301526136f381846135f1565b905092915050565b600081519050919050565b600082825260208201905092915050565b6000819050602082019050919050565b6000610140830160008301518482036000860152613745828261354d565b9150506020830151848203602086015261375f828261354d565b91505060408301516137746040860182613586565b5060608301516137876060860182613586565b506080830151848203608086015261379f828261354d565b91505060a08301516137b460a0860182613586565b5060c08301516137c760c0860182613586565b5060e08301516137da60e0860182613586565b506101008301516137ef6101008601826135a1565b506101208301516138046101208601826135e2565b508091505092915050565b600061381b8383613727565b905092915050565b6000602082019050919050565b600061383b826136fb565b6138458185613706565b93508360208202850161385785613717565b8060005b858110156138935784840389528151613874858261380f565b945061387f83613823565b925060208a0199505060018101905061385b565b50829750879550505050505092915050565b600060208201905081810360008301526138bf8184613830565b905092915050565b6138d0816135d0565b82525050565b60006020820190506138eb60008301846138c7565b92915050565b600081519050919050565b600082825260208201905092915050565b6000819050602082019050919050565b600067ffffffffffffffff82169050919050565b61393a8161391d565b82525050565b600061394c8383613931565b60208301905092915050565b6000602082019050919050565b6000613970826138f1565b61397a81856138fc565b93506139858361390d565b8060005b838110156139b657815161399d8882613940565b97506139a883613958565b925050600181019050613989565b5085935050505092915050565b600060208201905081810360008301526139dd8184613965565b905092915050565b6139ee8161344a565b82525050565b6000602082019050613a0960008301846139e5565b92915050565b60a082016000820151613a256000850182613586565b506020820151613a386020850182613586565b506040820151613a4b6040850182613586565b506060820151613a5e6060850182613586565b506080820151613a7160808501826135e2565b50505050565b600060a082019050613a8c6000830184613a0f565b92915050565b600060a082019050613aa760008301886139e5565b613ab460208301876139e5565b613ac160408301866139e5565b613ace60608301856139e5565b613adb60808301846138c7565b9695505050505050565b600082825260208201905092915050565b6000613b01826134ed565b613b0b8185613ae5565b9350613b1b818560208601613509565b613b248161353c565b840191505092915050565b613b3881613595565b82525050565b6000610140820190508181036000830152613b59818d613af6565b90508181036020830152613b6d818c613af6565b9050613b7c604083018b6139e5565b613b89606083018a6139e5565b8181036080830152613b9b8189613af6565b9050613baa60a08301886139e5565b613bb760c08301876139e5565b613bc460e08301866139e5565b613bd2610100830185613b2f565b613be06101208301846138c7565b9b9a5050505050505050505050565b613bf88161391d565b82525050565b6000602082019050613c136000830184613bef565b92915050565b613c228161391d565b8114613c2d57600080fd5b50565b600081359050613c3f81613c19565b92915050565b600060208284031215613c5b57613c5a613440565b5b6000613c6984828501613c30565b91505092915050565b600060a082019050613c8760008301886139e5565b613c9460208301876139e5565b613ca160408301866139e5565b613cae60608301856139e5565b8181036080830152613cc08184613af6565b90509695505050505050565b6000613cd7826135d0565b9050919050565b613ce781613ccc565b8114613cf257600080fd5b50565b600081359050613d0481613cde565b92915050565b600080fd5b600080fd5b600080fd5b60008083601f840112613d2f57613d2e613d0a565b5b8235905067ffffffffffffffff811115613d4c57613d4b613d0f565b5b602083019150836020820283011115613d6857613d67613d14565b5b9250929050565b600080600080600080600060c0888a031215613d8e57613d8d613440565b5b6000613d9c8a828b01613c30565b9750506020613dad8a828b01613cf5565b9650506040613dbe8a828b0161346b565b9550506060613dcf8a828b0161346b565b9450506080613de08a828b0161346b565b93505060a088013567ffffffffffffffff811115613e0157613e00613445565b5b613e0d8a828b01613d19565b925092505092959891949750929550565b6000602082019050613e336000830184613b2f565b92915050565b60008060008060008060008060e0898b031215613e5957613e58613440565b5b6000613e678b828c01613c30565b9850506020613e788b828c01613cf5565b9750506040613e898b828c0161346b565b9650506060613e9a8b828c0161346b565b9550506080613eab8b828c0161346b565b94505060a089013567ffffffffffffffff811115613ecc57613ecb613445565b5b613ed88b828c01613d19565b935093505060c0613eeb8b828c0161346b565b9150509295985092959890939650565b6000819050919050565b6000613f20613f1b613f16846135b0565b613efb565b6135b0565b9050919050565b6000613f3282613f05565b9050919050565b6000613f4482613f27565b9050919050565b613f5481613f39565b82525050565b6000602082019050613f6f6000830184613f4b565b92915050565b613f7e816135d0565b8114613f8957600080fd5b50565b600081359050613f9b81613f75565b92915050565b60008060408385031215613fb857613fb7613440565b5b6000613fc685828601613f8c565b9250506020613fd785828601613c30565b9150509250929050565b600081905082602060020282011115613ffd57613ffc613d14565b5b92915050565b60008190508260406002028201111561401f5761401e613d14565b5b92915050565b600080600080600080610140878903121561404357614042613440565b5b600061405189828a01613c30565b965050602087013567ffffffffffffffff81111561407257614071613445565b5b61407e89828a01613d19565b9550955050604061409189828a01613fe1565b93505060806140a289828a01614003565b9250506101006140b489828a01613fe1565b9150509295509295509295565b600081519050919050565b600082825260208201905092915050565b6000819050602082019050919050565b60006140f98383613586565b60208301905092915050565b6000602082019050919050565b600061411d826140c1565b61412781856140cc565b9350614132836140dd565b8060005b8381101561416357815161414a88826140ed565b975061415583614105565b925050600181019050614136565b5085935050505092915050565b600060c0830160008301516141886000860182613586565b50602083015161419b6020860182613586565b5060408301516141ae6040860182613586565b50606083015184820360608601526141c68282614112565b91505060808301516141db6080860182613586565b5060a083015184820360a08601526141f3828261354d565b9150508091505092915050565b6000602082019050818103600083015261421a8184614170565b905092915050565b60006020828403121561423857614237613440565b5b600061424684828501613f8c565b91505092915050565b600081519050919050565b600082825260208201905092915050565b6000819050602082019050919050565b60a0820160008201516142916000850182613586565b5060208201516142a46020850182613586565b5060408201516142b76040850182613586565b5060608201516142ca6060850182613586565b5060808201516142dd60808501826135e2565b50505050565b60006142ef838361427b565b60a08301905092915050565b6000602082019050919050565b60006143138261424f565b61431d818561425a565b93506143288361426b565b8060005b8381101561435957815161434088826142e3565b975061434b836142fb565b92505060018101905061432c565b5085935050505092915050565b600060208201905081810360008301526143808184614308565b905092915050565b600080fd5b7f4e487b7100000000000000000000000000000000000000000000000000000000600052604160045260246000fd5b6143c58261353c565b810181811067ffffffffffffffff821117156143e4576143e361438d565b5b80604052505050565b60006143f7613436565b905061440382826143bc565b919050565b600067ffffffffffffffff8211156144235761442261438d565b5b61442c8261353c565b9050602081019050919050565b82818337600083830152505050565b600061445b61445684614408565b6143ed565b90508281526020810184848401111561447757614476614388565b5b614482848285614439565b509392505050565b600082601f83011261449f5761449e613d0a565b5b81356144af848260208601614448565b91505092915050565b60008060008060008060c087890312156144d5576144d4613440565b5b600087013567ffffffffffffffff8111156144f3576144f2613445565b5b6144ff89828a0161448a565b965050602087013567ffffffffffffffff8111156145205761451f613445565b5b61452c89828a0161448a565b955050604061453d89828a0161346b565b945050606087013567ffffffffffffffff81111561455e5761455d613445565b5b61456a89828a0161448a565b935050608061457b89828a0161346b565b92505060a061458c89828a0161346b565b9150509295509295509295565b7f4e487b7100000000000000000000000000000000000000000000000000000000600052602260045260246000fd5b600060028204905060018216806145e057607f821691505b602082108114156145f4576145f3614599565b5b50919050565b7f4f6e6c79206f776e65722063616e2063616c6c20746869732066756e6374696f60008201527f6e00000000000000000000000000000000000000000000000000000000000000602082015250565b6000614656602183613ae5565b9150614661826145fa565b604082019050919050565b6000602082019050818103600083015261468581614649565b9050919050565b7f416d6f756e742073656e74206973206e6f7420657175616c20746f206269642060008201527f616d6f756e740000000000000000000000000000000000000000000000000000602082015250565b60006146e8602683613ae5565b91506146f38261468c565b604082019050919050565b60006020820190508181036000830152614717816146db565b9050919050565b7f54656e6465722068617320616c7265616479206265656e206163636570746564600082015250565b6000614754602083613ae5565b915061475f8261471e565b602082019050919050565b6000602082019050818103600083015261478381614747565b9050919050565b600060408201905061479f60008301856139e5565b6147ac60208301846139e5565b9392505050565b7f4e487b7100000000000000000000000000000000000000000000000000000000600052603260045260246000fd5b7f4e487b7100000000000000000000000000000000000000000000000000000000600052601160045260246000fd5b600061481c8261344a565b91507fffffffffffffffffffffffffffffffffffffffffffffffffffffffffffffffff82141561484f5761484e6147e2565b5b600182019050919050565b7f4f6e6c7920626964206f776e65722063616e2063616c6c20746869732066756e60008201527f6374696f6e000000000000000000000000000000000000000000000000000000602082015250565b60006148b6602583613ae5565b91506148c18261485a565b604082019050919050565b600060208201905081810360008301526148e5816148a9565b9050919050565b7f54656e64657220646561646c696e652068617320706173736564000000000000600082015250565b6000614922601a83613ae5565b915061492d826148ec565b602082019050919050565b6000602082019050818103600083015261495181614915565b9050919050565b7f42696420616d6f756e74206973206c657373207468616e206d696e2062696400600082015250565b600061498e601f83613ae5565b915061499982614958565b602082019050919050565b600060208201905081810360008301526149bd81614981565b9050919050565b7f42696420616d6f756e74206973206d6f7265207468616e206d61782062696400600082015250565b60006149fa601f83613ae5565b9150614a05826149c4565b602082019050919050565b60006020820190508181036000830152614a29816149ed565b9050919050565b6000608082019050614a4560008301876139e5565b614a5260208301866139e5565b614a5f60408301856139e5565b614a6c60608301846139e5565b95945050505050565b600082825260208201905092915050565b600080fd5b6000614a978385614a75565b93507f07ffffffffffffffffffffffffffffffffffffffffffffffffffffffffffffff831115614aca57614ac9614a86565b5b602083029250614adb838584614439565b82840190509392505050565b60006020820190508181036000830152614b02818486614a8b565b90509392505050565b600081519050614b1a81613454565b92915050565b600060208284031215614b3657614b35613440565b5b6000614b4484828501614b0b565b91505092915050565b600060069050919050565b600081905092915050565b6000819050919050565b614b768161344a565b82525050565b6000614b888383614b6d565b60208301905092915050565b6000602082019050919050565b614baa81614b4d565b614bb48184614b58565b9250614bbf82614b63565b8060005b83811015614bf0578151614bd78782614b7c565b9650614be283614b94565b925050600181019050614bc3565b505050505050565b600060c082019050614c0d6000830184614ba1565b92915050565b6000614c26614c2184614408565b6143ed565b905082815260208101848484011115614c4257614c41614388565b5b614c4d848285613509565b509392505050565b600082601f830112614c6a57614c69613d0a565b5b8151614c7a848260208601614c13565b91505092915050565b600060208284031215614c9957614c98613440565b5b600082015167ffffffffffffffff811115614cb757614cb6613445565b5b614cc384828501614c55565b91505092915050565b7f76616c696461746f72206973206e6f742073657420666f72207468697320726560008201527f7175657374206964000000000000000000000000000000000000000000000000602082015250565b6000614d28602883613ae5565b9150614d3382614ccc565b604082019050919050565b60006020820190508181036000830152614d5781614d1b565b9050919050565b7f7175657279206973206e6f742073657420666f7220746869732072657175657360008201527f7420696400000000000000000000000000000000000000000000000000000000602082015250565b6000614dba602483613ae5565b9150614dc582614d5e565b604082019050919050565b60006020820190508181036000830152614de981614dad565b9050919050565b600082825260208201905092915050565b6000614e0d8385614df0565b93507f07ffffffffffffffffffffffffffffffffffffffffffffffffffffffffffffff831115614e4057614e3f614a86565b5b602083029250614e51838584614439565b82840190509392505050565b614e6960408383614439565b5050565b600060029050919050565b600081905092915050565b6000819050919050565b614e9960408383614439565b5050565b6000614ea98383614e8d565b60408301905092915050565b600082905092915050565b6000604082019050919050565b614ed681614e6d565b614ee08184614e78565b9250614eeb82614e83565b8060005b83811015614f2457614f018284614eb5565b614f0b8782614e9d565b9650614f1683614ec0565b925050600181019050614eef565b505050505050565b6000610140820190508181036000830152614f4881888a614e01565b9050614f576020830187614e5d565b614f646060830186614ecd565b614f7160e0830185614e5d565b614f7f6101208301846139e5565b979650505050505050565b614f9381613595565b8114614f9e57600080fd5b50565b600081519050614fb081614f8a565b92915050565b600060208284031215614fcc57614fcb613440565b5b6000614fda84828501614fa1565b91505092915050565b7f70726f6f6620726573706f6e7365206973206e6f742076616c69640000000000600082015250565b6000615019601b83613ae5565b915061502482614fe3565b602082019050919050565b600060208201905081810360008301526150488161500c565b9050919050565b6000819050919050565b61506a6150658261344a565b61504f565b82525050565b600061507c8285615059565b60208201915061508c8284615059565b6020820191508190509392505050565b7f4f776e61626c653a206e6577206f776e657220697320746865207a65726f206160008201527f6464726573730000000000000000000000000000000000000000000000000000602082015250565b60006150f8602683613ae5565b91506151038261509c565b604082019050919050565b60006020820190508181036000830152615127816150eb565b9050919050565b600081905092915050565b6000615144826134ed565b61514e818561512e565b935061515e818560208601613509565b80840191505092915050565b60006151768285615139565b91506151828284615059565b6020820191508190509392505050565b6000610140820190506151a8600083018d6139e5565b81810360208301526151ba818c613af6565b905081810360408301526151ce818b613af6565b90506151dd606083018a6139e5565b6151ea60808301896139e5565b81810360a08301526151fc8188613af6565b905061520b60c08301876139e5565b61521860e08301866139e5565b615226610100830185613b2f565b6152346101208301846138c7565b9b9a5050505050505050505050565b7f4f776e61626c653a2063616c6c6572206973206e6f7420746865206f776e6572600082015250565b6000615279602083613ae5565b915061528482615243565b602082019050919050565b600060208201905081810360008301526152a88161526c565b9050919050565b7f6164647265737320696e2070726f6f66206973206e6f7420612073656e64657260008201527f2061646472657373000000000000000000000000000000000000000000000000602082015250565b600061530b602883613ae5565b9150615316826152af565b604082019050919050565b6000602082019050818103600083015261533a816152fe565b9050919050565b7f70726f6f662063616e206e6f74206265207375626d6974746564206d6f72652060008201527f7468616e206f6e63650000000000000000000000000000000000000000000000602082015250565b600061539d602983613ae5565b91506153a882615341565b604082019050919050565b600060208201905081810360008301526153cc81615390565b905091905056fea26469706673582212204e290cf5f4b0ad0c0c11ea85063af703c78d665e0cdd71e87f2f22198f74cc6b64736f6c63430008090033",
  "linkReferences": {
    "contracts/lib/Poseidon.sol": {
      "PoseidonUnit6L": [
        {
          "length": 20,
          "start": 7109
        }
      ]
    },
    "contracts/lib/SpongePoseidon.sol": {
      "SpongePoseidon": [
        {
          "length": 20,
          "start": 6968
        }
      ]
    }
  },
  "deployedLinkReferences": {
    "contracts/lib/Poseidon.sol": {
      "PoseidonUnit6L": [
        {
          "length": 20,
          "start": 6833
        }
      ]
    },
    "contracts/lib/SpongePoseidon.sol": {
      "SpongePoseidon": [
        {
          "length": 20,
          "start": 6692
        }
      ]
    }
  }
}